{
  "contractName": "Auth",
  "abi": [
    {
      "anonymous": false,
      "inputs": [
        {
          "indexed": false,
          "internalType": "string",
          "name": "username",
          "type": "string"
        },
        {
          "indexed": false,
          "internalType": "string",
          "name": "email",
          "type": "string"
        },
        {
          "indexed": false,
          "internalType": "string",
          "name": "password",
          "type": "string"
        }
      ],
      "name": "userCreated",
      "type": "event"
    },
    {
      "constant": true,
      "inputs": [],
      "name": "userCount",
      "outputs": [
        {
          "internalType": "uint256",
          "name": "",
          "type": "uint256"
        }
      ],
      "payable": false,
      "stateMutability": "view",
      "type": "function"
    },
    {
      "constant": true,
      "inputs": [
        {
          "internalType": "string",
          "name": "",
          "type": "string"
        }
      ],
      "name": "usersList",
      "outputs": [
        {
          "internalType": "string",
          "name": "username",
          "type": "string"
        },
        {
          "internalType": "string",
          "name": "email",
          "type": "string"
        },
        {
          "internalType": "string",
          "name": "password",
          "type": "string"
        }
      ],
      "payable": false,
      "stateMutability": "view",
      "type": "function"
    },
    {
      "constant": false,
      "inputs": [
        {
          "internalType": "string",
          "name": "_username",
          "type": "string"
        },
        {
          "internalType": "string",
          "name": "_email",
          "type": "string"
        },
        {
          "internalType": "string",
          "name": "_password",
          "type": "string"
        }
      ],
      "name": "createUser",
      "outputs": [],
      "payable": false,
      "stateMutability": "nonpayable",
      "type": "function"
    }
  ],
  "bytecode": "0x60806040526000805534801561001457600080fd5b506108e5806100246000396000f3fe608060405234801561001057600080fd5b50600436106100415760003560e01c806307973ccf146100465780634cbce6ac1461006057806359ae069b14610248575b600080fd5b61004e6103f8565b60408051918252519081900360200190f35b6101046004803603602081101561007657600080fd5b810190602081018135600160201b81111561009057600080fd5b8201836020820111156100a257600080fd5b803590602001918460018302840111600160201b831117156100c357600080fd5b91908080601f0160208091040260200160405190810160405280939291908181526020018383808284376000920191909152509295506103fe945050505050565b60405180806020018060200180602001848103845287818151815260200191508051906020019080838360005b83811015610149578181015183820152602001610131565b50505050905090810190601f1680156101765780820380516001836020036101000a031916815260200191505b50848103835286518152865160209182019188019080838360005b838110156101a9578181015183820152602001610191565b50505050905090810190601f1680156101d65780820380516001836020036101000a031916815260200191505b50848103825285518152855160209182019187019080838360005b838110156102095781810151838201526020016101f1565b50505050905090810190601f1680156102365780820380516001836020036101000a031916815260200191505b50965050505050505060405180910390f35b6103f66004803603606081101561025e57600080fd5b810190602081018135600160201b81111561027857600080fd5b82018360208201111561028a57600080fd5b803590602001918460018302840111600160201b831117156102ab57600080fd5b91908080601f0160208091040260200160405190810160405280939291908181526020018383808284376000920191909152509295949360208101935035915050600160201b8111156102fd57600080fd5b82018360208201111561030f57600080fd5b803590602001918460018302840111600160201b8311171561033057600080fd5b91908080601f0160208091040260200160405190810160405280939291908181526020018383808284376000920191909152509295949360208101935035915050600160201b81111561038257600080fd5b82018360208201111561039457600080fd5b803590602001918460018302840111600160201b831117156103b557600080fd5b91908080601f0160208091040260200160405190810160405280939291908181526020018383808284376000920191909152509295506105d7945050505050565b005b60005481565b8051602081830181018051600180835293830194830194909420939052825460408051600294831615610100026000190190921693909304601f810183900483028201830190935282815291839183018282801561049d5780601f106104725761010080835404028352916020019161049d565b820191906000526020600020905b81548152906001019060200180831161048057829003601f168201915b505050505090806001018054600181600116156101000203166002900480601f01602080910402602001604051908101604052809291908181526020018280546001816001161561010002031660029004801561053b5780601f106105105761010080835404028352916020019161053b565b820191906000526020600020905b81548152906001019060200180831161051e57829003601f168201915b50505060028085018054604080516020601f60001961010060018716150201909416959095049283018590048502810185019091528181529596959450909250908301828280156105cd5780601f106105a2576101008083540402835291602001916105cd565b820191906000526020600020905b8154815290600101906020018083116105b057829003601f168201915b5050505050905083565b60008054600190810190915560408051606081018252858152602080820186905281830185905291518551919392869282918401908083835b6020831061062f5780518252601f199092019160209182019101610610565b51815160209384036101000a600019018019909216911617905292019485525060405193849003810190932084518051919461067094508593500190610815565b5060208281015180516106899260018501920190610815565b50604082015180516106a5916002840191602090910190610815565b509050507fc50aadd178489c438b87db1b844b2d3380597c1c38fbcb15977a662c4404672e83838360405180806020018060200180602001848103845287818151815260200191508051906020019080838360005b838110156107125781810151838201526020016106fa565b50505050905090810190601f16801561073f5780820380516001836020036101000a031916815260200191505b50848103835286518152865160209182019188019080838360005b8381101561077257818101518382015260200161075a565b50505050905090810190601f16801561079f5780820380516001836020036101000a031916815260200191505b50848103825285518152855160209182019187019080838360005b838110156107d25781810151838201526020016107ba565b50505050905090810190601f1680156107ff5780820380516001836020036101000a031916815260200191505b50965050505050505060405180910390a1505050565b828054600181600116156101000203166002900490600052602060002090601f016020900481019282601f1061085657805160ff1916838001178555610883565b82800160010185558215610883579182015b82811115610883578251825591602001919060010190610868565b5061088f929150610893565b5090565b6108ad91905b8082111561088f5760008155600101610899565b9056fea265627a7a7231582096a7990ced308dfdcfbfcf5c8ef3fe51f00bbfd1bb645b292cfc6c869cd5da1864736f6c63430005100032",
  "source": "// SPDX-License-Identifier: MIT\r\npragma solidity >=0.4.22 <0.9.0;\r\n\r\ncontract Auth\r\n{ \r\n\tuint public userCount = 0;\r\n\r\n\tmapping(string => user) public usersList;\r\n\r\n\tstruct user\r\n\t{\r\n\tstring username;\r\n\tstring email;\r\n\tstring password;\r\n\t}\r\n\r\n// events\r\n\r\nevent userCreated(\r\n\tstring username,\r\n\tstring email,\r\n\tstring password\r\n\t);\r\n\r\nfunction createUser(string memory _username,\r\n\t\t\t\t\tstring memory _email,\r\n\t\t\t\t\tstring memory _password) public\r\n{\t \r\n\tuserCount++;\r\n\tusersList[_email] = user(_username,\r\n\t\t\t\t\t\t\t_email,\r\n\t\t\t\t\t\t\t_password);\r\n\temit userCreated(_username,\r\n\t\t\t\t\t_email,\r\n\t\t\t\t\t_password);\r\n\t}\r\n}\r\n",
  "sourcePath": "D:\\auth-app\\src\\contracts\\Auth.sol",
  "compiler": {
    "name": "solc",
    "version": "0.5.16+commit.9c3226ce.Emscripten.clang"
  },
  "schemaVersion": "3.4.16",
  "updatedAt": "2024-02-08T17:43:10.787Z",
  "devdoc": {
    "methods": {}
  },
  "userdoc": {
    "methods": {}
  }
}