{
  "contractName": "RegistrationContract",
  "abi": [
    {
      "anonymous": false,
      "inputs": [
        {
          "indexed": true,
          "internalType": "uint256",
          "name": "registrationId",
          "type": "uint256"
        }
      ],
      "name": "RegistrationAdded",
      "type": "event"
    },
    {
      "constant": true,
      "inputs": [],
      "name": "registrationCount",
      "outputs": [
        {
          "internalType": "uint256",
          "name": "",
          "type": "uint256"
        }
      ],
      "payable": false,
      "stateMutability": "view",
      "type": "function"
    },
    {
      "constant": true,
      "inputs": [
        {
          "internalType": "uint256",
          "name": "",
          "type": "uint256"
        }
      ],
      "name": "registrations",
      "outputs": [
        {
          "internalType": "string",
          "name": "fullNames",
          "type": "string"
        },
        {
          "internalType": "string",
          "name": "voterId",
          "type": "string"
        },
        {
          "internalType": "string",
          "name": "nationalId",
          "type": "string"
        },
        {
          "internalType": "string",
          "name": "constituency",
          "type": "string"
        },
        {
          "internalType": "string",
          "name": "registrationCenter",
          "type": "string"
        }
      ],
      "payable": false,
      "stateMutability": "view",
      "type": "function"
    },
    {
      "constant": false,
      "inputs": [
        {
          "internalType": "string",
          "name": "_fullNames",
          "type": "string"
        },
        {
          "internalType": "string",
          "name": "_voterId",
          "type": "string"
        },
        {
          "internalType": "string",
          "name": "_nationalId",
          "type": "string"
        },
        {
          "internalType": "string",
          "name": "_constituency",
          "type": "string"
        },
        {
          "internalType": "string",
          "name": "_registrationCenter",
          "type": "string"
        }
      ],
      "name": "registerVoter",
      "outputs": [],
      "payable": false,
      "stateMutability": "nonpayable",
      "type": "function"
    }
  ],
  "bytecode": "0x608060405234801561001057600080fd5b506109c3806100206000396000f3fe608060405234801561001057600080fd5b50600436106100415760003560e01c80630d3eafd6146100465780635ed5d2c314610060578063f4ddb5be1461031a575b600080fd5b61004e610547565b60408051918252519081900360200190f35b610318600480360360a081101561007657600080fd5b810190602081018135600160201b81111561009057600080fd5b8201836020820111156100a257600080fd5b803590602001918460018302840111600160201b831117156100c357600080fd5b91908080601f0160208091040260200160405190810160405280939291908181526020018383808284376000920191909152509295949360208101935035915050600160201b81111561011557600080fd5b82018360208201111561012757600080fd5b803590602001918460018302840111600160201b8311171561014857600080fd5b91908080601f0160208091040260200160405190810160405280939291908181526020018383808284376000920191909152509295949360208101935035915050600160201b81111561019a57600080fd5b8201836020820111156101ac57600080fd5b803590602001918460018302840111600160201b831117156101cd57600080fd5b91908080601f0160208091040260200160405190810160405280939291908181526020018383808284376000920191909152509295949360208101935035915050600160201b81111561021f57600080fd5b82018360208201111561023157600080fd5b803590602001918460018302840111600160201b8311171561025257600080fd5b91908080601f0160208091040260200160405190810160405280939291908181526020018383808284376000920191909152509295949360208101935035915050600160201b8111156102a457600080fd5b8201836020820111156102b657600080fd5b803590602001918460018302840111600160201b831117156102d757600080fd5b91908080601f01602080910402602001604051908101604052809392919081815260200183838082843760009201919091525092955061054d945050505050565b005b6103376004803603602081101561033057600080fd5b5035610605565b60405180806020018060200180602001806020018060200186810386528b818151815260200191508051906020019080838360005b8381101561038457818101518382015260200161036c565b50505050905090810190601f1680156103b15780820380516001836020036101000a031916815260200191505b5086810385528a5181528a516020918201918c019080838360005b838110156103e45781810151838201526020016103cc565b50505050905090810190601f1680156104115780820380516001836020036101000a031916815260200191505b5086810384528951815289516020918201918b019080838360005b8381101561044457818101518382015260200161042c565b50505050905090810190601f1680156104715780820380516001836020036101000a031916815260200191505b5086810383528851815288516020918201918a019080838360005b838110156104a457818101518382015260200161048c565b50505050905090810190601f1680156104d15780820380516001836020036101000a031916815260200191505b50868103825287518152875160209182019189019080838360005b838110156105045781810151838201526020016104ec565b50505050905090810190601f1680156105315780820380516001836020036101000a031916815260200191505b509a505050505050505050505060405180910390f35b60015481565b60018054810190819055600090815260208181526040909120865190916105789183918901906108f3565b50845161058e90600183019060208801906108f3565b5083516105a490600283019060208701906108f3565b5082516105ba90600383019060208601906108f3565b5081516105d090600483019060208501906108f3565b506001546040517fba437519e1aab3c2fb420de81c2a6ff5045a066027ae76a9afce558ab0acacea90600090a2505050505050565b6000602081815291815260409081902080548251601f6002600019610100600186161502019093169290920491820185900485028101850190935280835290928391908301828280156106995780601f1061066e57610100808354040283529160200191610699565b820191906000526020600020905b81548152906001019060200180831161067c57829003601f168201915b505050505090806001018054600181600116156101000203166002900480601f0160208091040260200160405190810160405280929190818152602001828054600181600116156101000203166002900480156107375780601f1061070c57610100808354040283529160200191610737565b820191906000526020600020905b81548152906001019060200180831161071a57829003601f168201915b50505060028085018054604080516020601f60001961010060018716150201909416959095049283018590048502810185019091528181529596959450909250908301828280156107c95780601f1061079e576101008083540402835291602001916107c9565b820191906000526020600020905b8154815290600101906020018083116107ac57829003601f168201915b5050505060038301805460408051602060026001851615610100026000190190941693909304601f81018490048402820184019092528181529495949350908301828280156108595780601f1061082e57610100808354040283529160200191610859565b820191906000526020600020905b81548152906001019060200180831161083c57829003601f168201915b5050505060048301805460408051602060026001851615610100026000190190941693909304601f81018490048402820184019092528181529495949350908301828280156108e95780601f106108be576101008083540402835291602001916108e9565b820191906000526020600020905b8154815290600101906020018083116108cc57829003601f168201915b5050505050905085565b828054600181600116156101000203166002900490600052602060002090601f016020900481019282601f1061093457805160ff1916838001178555610961565b82800160010185558215610961579182015b82811115610961578251825591602001919060010190610946565b5061096d929150610971565b5090565b61098b91905b8082111561096d5760008155600101610977565b9056fea265627a7a723158206113a469e66d33e940b6a9f376d29f204ad0fb182d4df716e825f7f1b0f8d4e264736f6c63430005100032",
  "source": "// SPDX-License-Identifier: MIT\r\npragma solidity >=0.4.22 <0.9.0;\r\n\r\ncontract RegistrationContract {\r\n    struct RegistrationData {\r\n        string fullNames;\r\n        string voterId;\r\n        string nationalId;\r\n        string constituency;\r\n        string registrationCenter;\r\n    }\r\n\r\n    mapping(uint256 => RegistrationData) public registrations;\r\n    uint256 public registrationCount;\r\n\r\n    event RegistrationAdded(uint256 indexed registrationId);\r\n\r\n    function registerVoter(\r\n        string memory _fullNames,\r\n        string memory _voterId,\r\n        string memory _nationalId,\r\n        string memory _constituency,\r\n        string memory _registrationCenter\r\n    ) public {\r\n        registrationCount++;\r\n        RegistrationData storage newRegistration = registrations[registrationCount];\r\n        newRegistration.fullNames = _fullNames;\r\n        newRegistration.voterId = _voterId;\r\n        newRegistration.nationalId = _nationalId;\r\n        newRegistration.constituency = _constituency;\r\n        newRegistration.registrationCenter = _registrationCenter;\r\n\r\n        emit RegistrationAdded(registrationCount);\r\n    }\r\n}",
  "sourcePath": "D:\\auth-app\\src\\contracts\\RegistrationContract.sol",
  "compiler": {
    "name": "solc",
    "version": "0.5.16+commit.9c3226ce.Emscripten.clang"
  },
  "schemaVersion": "3.4.16",
  "updatedAt": "2024-02-08T17:43:10.812Z",
  "devdoc": {
    "methods": {}
  },
  "userdoc": {
    "methods": {}
  }
}